:100000000C940A020C9451020C9451020C9451026B
:100010000C9451020C9451020C9451020C94510214
:100020000C9451020C9451020C9416220C94EA2266
:100030000C949C1C0C9451020C9451020C9451028F
:100040000C9451020C9451020C9451020C945102E4
:100050000C9451020C94F31C0C9451020C94510218
:100060000C9451020C9451020C9451020C945102C4
:100070000C9451020C9451020C9451020C945102B4
:100080000C9451020C9451020C9451020C945102A4
:100090000C9451020C9451020C9451020C94510294
:1000A0000C9451020C9451020C9451020000000077
:1000B0004600470048000000000049004A004B008D
:1000C00053005400550056004C004D004E005F0098
:1000D0006000610057000000000000005C005D004F
:1000E0005E00570000005200000059005A005B00FB
:1000F0005800500051004F00620062006300580039
:1001000001000100010001000100010001000100E7
:1001100001000100010001000100010001000100D7
:1001200001000100010001000100010001000100C7
:1001300001000100010001000100010001000100B7
:1001400001000100010001000100010001000100A7
:100150000100010001000100010001000100010097
:100160000100010001000100010001000100010087
:100170000100010001000100010001000100010077
:100180000100010001000100010001000100010067
:100190000100010001000100010001000100010057
:1001A0000100010001000100010001000100010047
:1001B0000100010001000100010001000100010037
:1001C0000100010001000100010001000100010027
:1001D0000100010001000100010001000100010017
:1001E0000100010001000100010001000100010007
:1001F00001000100010001000100010000000000F9
:10020000000000002A2B2800000000000000000071
:100210000000000000000029000000002C1E342017
:10022000212224342627252E362D3738271E1F203D
:100230002122232425263333362E37381F04050682
:100240000708090A0B0C0D0E0F10111213141516C6
:100250001718191A1B1C1D2F3130232D35040506C4
:100260000708090A0B0C0D0E0F10111213141516A6
:100270001718191A1B1C1D2F3130354C00000000B7
:10028000000000000000000000000000000000006E
:10029000000000000000000000000000000000005E
:1002A0007E0F00D4FFFFFFC7000000780C03610041
:1002B0007A0074006C00690000000A036D006F0092
:1002C00063006F0000000403090409025B000301DE
:1002D00000A0FA0904000001030101000921110135
:1002E00000012240000705810308000A09040100FB
:1002F000020300000009211101000122220007056C
:100300008203200001070503032000010904020005
:100310000103000000092111010001227B000705F3
:10032000840320000A1201100100000008D804EF25
:10033000E80100010200010660FF0961A1010962F4
:10034000150026FF00952075088102096315002617
:10035000FF00952075089102C005010902A10185E1
:10036000020901A1000509190129081500250195B7
:1003700008750181020501093009311581257F9534
:10038000027508810609381581257F950175088158
:1003900006050C0A38021581257F9501750881062E
:1003A000C0C005010980A101850319012AB7001504
:1003B0000126B700950175108100C0050C0901A147
:1003C00001850419012AA002150126A002950175D4
:1003D000108100C005010906A101050719E029E700
:1003E00015002501950875018102950175088101A7
:1003F0000507190029FF150026FF009506750881DD
:1004000000050819012905950575019102950175E9
:10041000039101C011241FBECFEFDAE0DEBFCDBFD4
:1004200004B603FE27C08091740290917502A091DA
:100430007602B09177028730904BA740B04BD1F451
:100440001092740210927502109276021092770246
:1004500014BE84B7877F84BF0FB6F894A8958091A7
:100460006000886180936000109260000FBEE0E041
:10047000F8E3099511E0A0E0B1E0E8E9FAE402C090
:1004800005900D92A83AB107D9F722E0A8EAB1E0A9
:1004900001C01D92A437B207E1F70E94D61E0C944A
:1004A00013250C94000081110AC08AEA90E06623AB
:1004B00011F089EA90E00E94C90281E0089581303C
:1004C000E1F78CEA90E06623B1F38BEA90E0F3CF9A
:1004D000CF93DF939C013A9521153F4168F5EC01DC
:1004E000CC27D170DC01AA27B270AC01442754702C
:1004F0009C012227387094FF11C080E1CD2B09F4B4
:1005000080E0AB2B09F08062452B09F08064232B3F
:1005100009F08068FB01DF91CF91099481E0CD2B38
:1005200009F480E0AB2B09F08260452B09F0846070
:10053000232B81F38860EECFDF91CF910895CF9385
:10054000DF93EC01805E9109089720F067E475E184
:10055000209711F461EF72E1CE010E9468028C2FA6
:10056000DF91CF910C94EA11CF93DF93EC010E94BD
:100570007C12CE01805E9109089720F06EE475E14F
:10058000209711F468EF72E1CE01DF91CF910C94C6
:100590006802CF93DF93EC010E949F02CE01DF91AE
:1005A000CF910C94B40281E0089581E008950C94F9
:1005B000D50208950C94D9021F93CF93DF9300D0F6
:1005C00000D00F92CDB7DEB749835A836B83309149
:1005D000DD0189819A8131111DC06623B9F0222382
:1005E000A9F00E94DD19182F682F89819A810E9435
:1005F000891969817A81812F0F900F900F900F9048
:100600000F90DF91CF911F910C94920D0E94B5191C
:10061000182FEFCF0E94DD1969817A81EDCFFC019F
:10062000262F408151816281738184810C94DC0288
:10063000CF93DF93EC0160E00E940F03BE01DF91D6
:10064000CF910C94DA028F929F92AF92BF92CF9289
:10065000DF92EF92FF920F931F936B017C0181E079
:1006600090E0A0E0B0E04C015D0104C0880C991C52
:10067000AA1CBB1C4A95D2F7B501A4014C015D012F
:1006800004C0880C991CAA1CBB1C2A95D2F74829C7
:1006900059296A297B2904C0880F991FAA1FBB1FEB
:1006A0000A95D2F78A019B010C211D212E213F21A1
:1006B000041715072607370789F48C299D29AE29C9
:1006C000BF29BC01CD011F910F91FF90EF90DF90EA
:1006D000CF90BF90AF909F908F9008958095909508
:1006E000A095B0958C219D21AE21BF21EACF0F931B
:1006F000382F262F60913402709135028091360296
:1007000090913702042F432F0E9423030F910C94E2
:10071000C7180E94C3060C94E8060C94EB060895D3
:100720000E946B150E948F032FEF84E39CE0215001
:1007300080409040E1F700C000000C94171D0F931B
:100740001F93CF93DF938C0161E00E940F03EC01B4
:10075000B8010E94DA0B8823D9F1B801CE010E94BA
:10076000D7028823A9F1B801CE010E94C90E8823BF
:1007700079F1B801CE010E941B0F882349F1B8011D
:10078000CE010E943E10882319F1F801828188234E
:1007900061F0CA35FDE5DF0721F170F4C115ECE524
:1007A000DE07A1F0CE3DDC45C9F0C801DF91CF9155
:1007B0001F910F910C94D302CB358DE5D807A1F092
:1007C000CC35DD4591F70E94841AEFCF0E9490034B
:1007D00080E0DF91CF911F910F9108950E94F01B4F
:1007E000F7CF0E948D1AE1CF0E94901ADECFDF92E0
:1007F000EF92FF920F931F93CF93DF93E82FF0E0D8
:10080000E450FE4FD490282F26952695269530E06B
:10081000F901E456FD4F0491877010E0082E02C0E4
:10082000159507950A94E2F701701127F901E4572D
:10083000FD4FE490F12C082E02C0F594E7940A9441
:10084000E2F791E0E922FF24F901E458FD4FC49159
:10085000D0E002C0D595C7958A95E2F7C170DD2733
:100860000115110519F081EE0E94EA11E114F1045D
:1008700019F086EE0E94EA118D2D0E94E912EF28F0
:1008800019F086EE0E947C12012B19F081EE0E9475
:100890007C12CD2B51F08CE2DF91CF911F910F9103
:1008A000FF90EF90DF900C94E912DF91CF911F91B0
:1008B0000F91FF90EF90DF900895EF92FF920F93CA
:1008C0001F93CF93DF93EC01162F0AE088818823D2
:1008D00009F454C0813009F04EC08981813099F407
:1008E0007E0122E0E20EF11C8A810E94E912E701FA
:1008F0002196812F815050F3EFE9FFE03197F1F716
:1009000000C00000F7CF823041F47E0182E0E80EA3
:10091000F11C8A810E94EA11EACF833041F47E0102
:10092000E2E0EE0EF11C8A810E947C12E0CF84305E
:1009300011F02196DDCF2A81229690E080E0AE0171
:100940004F5F5F4F2053330B2A30310548F001973A
:1009500078F2EFE9FFE03197F1F700C00000F7CF40
:10096000089FB001099F700D1124C901860F971FC0
:100970002981EA01E4CF0E94F703BACFDF91CF913A
:100980001F910F91FF90EF90089560E00C945D042B
:1009900008950C94C80481E008950C94CB04CF937F
:1009A000C82F0E94C9048C2FCF910C94CD04CF93F3
:1009B000DF930E94920D0E94D105EC01811521E583
:1009C000920708F042C0811530E5930708F09DC0FA
:1009D000883E910530F5803E910508F092C0883A36
:1009E000910588F4853A910508F084C0813091051D
:1009F00009F487C0009709F484C0049708F081C007
:100A0000D0E0C0E07EC08F3B9105D0F7C85AD0E05F
:100A1000CC0FDD1FCB5EDE4F0990D881C02DD46492
:100A200070C08115904250F4C11581E0D80708F0DC
:100A300068C0C03FD10520F3D06563C0C11590E404
:100A4000D907F0F2DF70D06A5CC0811525E5920706
:100A500000F5811534E5930708F08BC0811543E557
:100A6000940708F073C0C11582E5D80708F469C07F
:100A7000CE018370992721E030E002C0220F331F9E
:100A80008A95E2F7C695C69580E2C89FE0011124D9
:100A900054C0C11599E5D907A8F4C11528E5D207B6
:100AA00008F06CC0C11536E5D30708F0A9CF8C2F2C
:100AB0000E946806C82FD0E0DC2FCC27CC27DF713E
:100AC000D0621FC0C1154AE5D40708F45CC0CE014E
:100AD00090568115904208F093CF8D2F8F710E9410
:100AE000680690E0982F882788279F719C012C2BFF
:100AF000E901E6CFC55AD0E0CD5BDE4FC881D0E03A
:100B0000D064CE01DF91CF910895E4E0969587956A
:100B1000EA95E1F783702C2F26952695237040E205
:100B2000249F90011124382B8C2F8370C1E0D0E0DA
:100B300002C0CC0FDD1F8A95E2F7C22BD32BDC68F5
:100B4000E0CFDC2FCC27C16FD06ADBCF8370992731
:100B500021E030E002C0220F331F8A95E2F7C695EC
:100B6000C69590E2C99FE0011124C22BD32BDA680D
:100B7000C8CFD82FCC27C46FD06AC3CFDC2FCC27E7
:100B8000C06FD06ABECF8C2F8F700E94680634E091
:100B9000D695C7953A95E1F7CF709C2FEC01D069B7
:100BA000B0CF82389105B1F1B0F48133910509F4E9
:100BB00075C048F48932910509F469C08A329105FB
:100BC00009F473C008958533910509F459C0893338
:100BD000910501F10895833E9105A9F138F4803E15
:100BE0009105F9F0823E910549F10895863E9105FF
:100BF000A9F1873E9105C9F1843E910519F520912F
:100C0000560221FF1FC08091550284FD14C087EE5B
:100C100090E00895209155022370A1F080EE90E0BD
:100C200008952091550220FD47C03091560230FFB3
:100C300009C024FF44C090E080E004C02091550228
:100C400022FDF7CF08952091550222FD3BC030913F
:100C5000560230FDE3CF24FFF5CFEDCF20915502B2
:100C600023FFF0CF24FDE7CFD2CF2091550223FD03
:100C70002CC03091560231FFEECF84EE90E0089503
:100C80002091550225FFDECF89E290E00895209162
:100C9000550225FFD7CF85E390E0089520915502B6
:100CA00026FFD0CF8AE290E008952091550226FFDA
:100CB000C9CF81E390E0089589E390E0089583EE41
:100CC00090E0089582EE90E0089586EE90E0089519
:100CD0009091550292FF06C0282F28712830F9F410
:100CE000877F846093FF06C0282F28712831F1F494
:100CF000877E84612091560220FF06C0382F38710C
:100D00003830D9F4877F816021FF06C0282F2871F1
:100D10002831D1F4877E816194FD877E0895282F44
:100D200024712430F9F68B7F8860DCCF282F247162
:100D3000243101F78B7E8861DDCF382F317131305E
:100D400019F78E7F8860E0CF282F2171213121F79C
:100D50008E7E8861E1CF0C94B40B0E9446078FE32E
:100D60009CE90197F1F700C000000E94460780E06F
:100D70000E94ED0680FF04C00E94AB060C94171D74
:100D800008950C94AD060E944B1B811102C00E9475
:100D9000F01B0E94561B809349020E945E1B909399
:100DA0005602809355020E94C1060E945A1B682F6A
:100DB00070E090E080E00E948B18609134027091A6
:100DC000350280913602909137020C94C51808952F
:100DD0000C94E70608950C94EA06E82FF0E0E35A35
:100DE000FD4F80810895089580EA8A95F1F708956E
:100DF00000C008950C94F406F894E82FE295EF7083
:100E0000F0E031A1282F2F7081E090E001C0880F21
:100E10002A95EAF7982F9095932391A392A1892B75
:100E200082A3789408950F931F93CF93DF9384E95F
:100E30000E94FC0686E60E94FC0687E90E94FC06EA
:100E400086EC0E94FC0684E30E94FC0685E30E9477
:100E5000FC06C6E4D1E00DE411E089910E94FC0695
:100E60000C171D07D1F7E7E5F2E0ADE5B2E011920E
:100E70001D9282E0ED35F807D1F786E00E94BD07AC
:100E8000DF91CF911F910F910C948903CF92DF9244
:100E9000EF92FF920F931F93CF93DF93CDE4D1E0B6
:100EA00007E512E0D12CEE24E394F12C8991F8941B
:100EB000E82FE295EF70F0E021A18F70A70102C04A
:100EC000440F551F8A95E2F7CA01922F982B91A3E0
:100ED00092A18095892382A378940E94F806E6E483
:100EE000F1E030E020E0C12C4191A42FA295AF7039
:100EF000B0E090968C9190E04F7002C095958795E8
:100F00004A95E2F780FD35C08E2D022E01C0880F74
:100F10000A94EAF7C82A2F5F3F4F2730310521F79F
:100F2000FE01319780810E94FC060E94FA06F801BA
:100F30008081C81601F1C08281E0D82A0F5F1F4F5F
:100F4000F1E0C335DF0709F0B1CF2D2D46E06DE5A7
:100F500072E087E592E00E94BE070E948D038D2D0E
:100F6000DF91CF911F910F91FF90EF90DF90CF9085
:100F7000089580E0CFCF80E0E0CF0895FF920F93F7
:100F80001F93CF93DF93F82E092F162FD72FC42F3F
:100F9000222349F081E08093AC010E94CC1C909305
:100FA000AB018093AA018091AC018823A1F08091CC
:100FB000AA019091AB010E94E41C069760F0EF2D0E
:100FC000F02FA12FBD2FCE0FDF2FD11DEC17FD0766
:100FD00041F41092AC01DF91CF911F910F91FF90DE
:100FE000089581918D93F2CF8091B30180FF12C05B
:100FF0006091050185E0689FB001112475956795A2
:101000007595679560387105A8F561157105A1F1B1
:10101000862F089581FF09C06091050185E0689FD2
:10102000B001112475956795EDCF6091050182FDA2
:101030000AC08091B2018823D1F09091040160919F
:101040000501891728F085E0689FB0011124DACFE7
:10105000869FB001112485E0869F9001879F300D07
:101060001124692F70E0C9010E949C24CBCF65E058
:1010700070E0CECF8FE7089581E008958091B301AD
:1010800080FF0CC06091010170E0759567957595C2
:1010900067956115710549F1862F089581FF06C096
:1010A0006091010170E075956795F3CF6091010142
:1010B00082FD0BC09091B1019923A1F060910001D4
:1010C00080910101961738F0682F70E06038710543
:1010D00000F38FE70895899FC001112470E00E94FA
:1010E0009C24F4CF61E070E0D7CF81E00895803F89
:1010F00031F40E94F40781958093B7010895813FF0
:1011000019F40E94F407F8CF823F31F40E94F407EB
:1011100081958093B6010895833F19F40E94F407E6
:10112000F8CF893F29F40E943E088093B8010895C2
:101130008A3F21F40E943E088195F7CF8B3F31F41E
:101140000E943E0881958093B90108958C3F19F45F
:101150000E943E08F8CF9CE0980F953070F4845FB1
:10116000990B21E030E001C0220F8A95EAF78091C7
:10117000B501822B8093B50108958D3F31F48091A4
:10118000B30181608093B30108958E3F21F4809173
:10119000B3018260F7CF8F3FB9F78091B3018460CC
:1011A000F1CF4091B601803F59F48091B70187FF9C
:1011B0000DC01092B70141110BC01092B20108C0CE
:1011C000813F81F48091B70118169CF3442381F08C
:1011D0008091B8019091B901892B09F05AC0109201
:1011E000B1010895823F49F447FFF0CF1092B60154
:1011F0008091B7018111ECCFE0CF833F19F4141631
:10120000ACF3E4CF9091B801893F29F41916F4F6B4
:101210001092B801DBCF8A3F19F497FFD7CFF8CFF0
:101220009091B9018B3F29F497FFD0CF1092B9016B
:10123000CDCF8C3F19F41916CCF3C8CF9CE0980F92
:10124000953090F4845F990B21E030E0B90102C041
:10125000660F771F8A95E2F7CB0180959091B501D3
:1012600089238093B501B2CF8D3F31F48091B301D2
:101270008E7F8093B301AACF8E3F21F48091B3017A
:101280008D7FF7CF8F3F09F0A1CF8091B3018B7F86
:10129000F0CF08950E94CC1C9C019091B6018091E2
:1012A000B701982B21F03093B0012093AF019091BA
:1012B000B8018091B901982B21F03093AE012093B1
:1012C000AD0184EB91E00C948410EF92FF920F93A8
:1012D0001F93CF93DF9300D000D000D0CDB7DEB7FF
:1012E00086E0E4EBF1E0DE01119601900D928A9523
:1012F000E1F7E090B601F090B7010091B8011091CC
:10130000B9011092B6011092B7011092B801109273
:10131000B9018E2D8F2991F08091AF019091B0018C
:101320000E94E41CAC019091B201992309F43FC0E2
:10133000809106018417150608F447C0802F812B81
:1013400091F08091AD019091AE010E94E41CAC013E
:101350009091B101992309F477C08091020184171B
:10136000150608F47FC08091B6019091B701892BD2
:101370009091B801892B9091B901892B11F00E94AD
:101380004A0986E0FE013196A4EBB1E001900D928E
:101390008A95E1F726960FB6F894DEBF0FBECDBF53
:1013A000DF91CF911F910F91FF90EF9008952091C1
:1013B00007018AE0289F900111242417350708F0BF
:1013C000BDCF9F5F9093B20102C09F3FD1F7EE2047
:1013D00059F00E94F4079FEF1E140CF491E0899FCE
:1013E000802D11248093B601FF2059F00E94F4074C
:1013F0009FEF1F140CF491E0899F802D112480939E
:10140000B7013091B601332309F498CF2091B70189
:10141000222309F493CF45EB3403C001112499230F
:1014200059F09093B60145EB240390011124332326
:1014300039F03093B70182CF81E08093B601F3CFCA
:1014400081E08093B7017ACF209103018AE0289F41
:10145000900111242417350708F085CF9F5F9093E2
:10146000B10102C09F3FD1F7002359F00E943E080E
:101470009FEF10160CF491E0899F802D112480932A
:10148000B801112359F00E943E089FEF11160CF489
:1014900091E0899F802D11248093B9013091B8018A
:1014A000332309F460CF2091B901222309F45BCFE3
:1014B00045EB3403C0011124992359F09093B801EE
:1014C00045EB240390011124332339F03093B90103
:1014D0004ACF81E08093B801F3CF81E08093B901D6
:1014E00042CF86E0E4EBF1E0DF011D928A95E9F757
:1014F0001092B2011092B1011092B30108950C94B0
:101500005302AF92BF92CF92DF92EF92FF920F936E
:101510001F93CF93DF93A5E6B1E023E631E08EEB96
:10152000A82E81E0B82E67E671E041E050E00D9111
:10153000802F82958F7090E0FC01C1A10F707A011D
:10154000002E01C0EE0C0A94EAF7FE2DF095CF2391
:10155000FC01C1A3C2A1CE29C2A3E90119919E0138
:10156000E12FE295EF70F0E0F1A01F706A01012E0B
:1015700001C0CC0C0A94EAF7EC2CE094EF20E1A235
:10158000F2A0FC28F2A2EC0188A190E002C095959F
:1015900087950A95E2F78170E0A1F0E002C0F59529
:1015A000E7951A95E2F790E0E0FD92E0892BF501CE
:1015B00081935F016A177B0709F0B9CFDF91CF9163
:1015C0001F910F91FF90EF90DF90CF90BF90AF9061
:1015D00008956F927F928F929F92AF92BF92CF9217
:1015E000DF92EF92FF920F931F93CF93DF930EEB57
:1015F00011E085E6C82E81E0D82E93E6E92E91E031
:10160000F92E2CEB822E21E0922ECAEBD1E0712C28
:10161000612C34E0A32EB12CD801EC91EE0FEE0F2B
:10162000ED938D01D6012D916D01A22FA295AF7082
:10163000B0E090968C9190E02F7002C095958795C0
:101640002A95E2F781709927D7014D917D01A42F4A
:10165000A295AF70B0E090962C9130E04F7002C030
:10166000359527954A95E2F7A9014170552720FF46
:1016700002C042E050E0842BE82BD8011197EC9394
:10168000EF70F0E0ED5AFE4F8081F4019081890FF8
:10169000808320E0843044F088818F5F888360E01D
:1016A000872D0E947F0A21E0D4018C918D3F44F464
:1016B00088818150888361E0872D0E947F0A21E024
:1016C000F4018081082E000C990BB5010E949C2426
:1016D000D4018D934D01622A2196B1E07B1210C096
:1016E000862DDF91CF911F910F91FF90EF90DF90AA
:1016F000CF90BF90AF909F908F907F906F90089504
:101700007724739489CF83E290E00E94D1248132C0
:1017100089F484E290E00E94D124873059F485E274
:1017200090E00E94D12491E0843009F090E0892F6C
:101730008170089580E0FCCFCF93C82F6FEF8111A7
:1017400061E283E290E00E94DF246FEFC11167E065
:1017500084E290E00E94DF246FEFC11164E085E233
:1017600090E0CF910C94DF2480E00E949C0B0C94BD
:10177000451B089586E290E00E94D124682F70E016
:1017800090E080E0089586E290E00C94DF240E94CF
:10179000B90B0E94830B81110CC060E070E0CB019B
:1017A0000E94C30B0E940A0D0E94F60D81E00C946A
:1017B0009C0B0895CF93FB01C281CC2309F19C01BE
:1017C00022513F452031310520F582510E94060EFD
:1017D000C0E08C2FCF91089581E00E94ED1843E086
:1017E00062E081E00E947703F3CF81E00E940E194E
:1017F00043E062E081E00E947703EBCF82E0F6CF26
:101800008031FFE59F0789F381319F45B9F3C1E03E
:10181000E0CF8031EFE59E07F9F281319F45C9F6AF
:1018200082E0DBCF2FEFFC0120830895EF92FF923F
:101830000F931F93CF93DF93EC01062FE881E150C4
:10184000E33108F05EC0F0E0EB5EFA4D0C94B0249A
:10185000198289E08A83602FCE01DF91CF911F9199
:101860000F91FF90EF900C94CB1D8981823069F02D
:10187000833071F08130D9F40E94D81C0E94B624C4
:101880006A837B838C839D83E6CF0E94BA0BF6CF5D
:101890007E0182E0E80EF11C10E0812F0E94ED062F
:1018A000F70181937F011F5F1630B9F7D4CF602F06
:1018B000CE010E94120CCFCF89818230C1F76A819C
:1018C0007B818C819D810E94B6240E94C30BC3CF73
:1018D0004B816A8189810E94DC0C9827892798278F
:1018E0009D838C83B8CF2C813D81322723273227DB
:1018F0004B816A8189810E94F50CADCF0E940A0D4F
:10190000AACF8FEF8883A7CF0E949F0D8983A3CF93
:101910000E94A10D9827892798279A8389839BCFB6
:101920006B8170E089819A81AE014C5F5F4F98278F
:10193000892798270E94A40D8ECF6B8170E0898142
:101940009A81AE014C5F5F4F9827892798270E94A4
:10195000CB0D81CF0E94F60D7ECF0E94CA0CD6CF50
:101960006B8170E089819A81AE014C5F5F4F98274F
:10197000892798270E94420D6ECF6B8170E0898184
:101980009A81AE014C5F5F4F9827892798270E9464
:10199000680D61CF84E0089550E0440F551F9EE02C
:1019A000699F400D511D112494E5899F400D511DE3
:1019B0001124CA01879608950F931F93CF93DF9345
:1019C0000E94CC0C8C010E94D124C82FD0E0DC2FC7
:1019D000CC27C80101960E94D1249E01282BC90161
:1019E000DF91CF911F910F9108950F931F93CF9384
:1019F000DF93122F032F0E94CC0CEC01602F0E946A
:101A0000DF24612FCE010196DF91CF911F910F91BD
:101A10000C94DF24AF92BF92CF92DF92EF92FF92AD
:101A20001F93CF93DF938CEAC82E80E0D82ED0E0AE
:101A30007601C0E014C0F50125913491412F6C2F3F
:101A40008D2F0E94F50C82E0A80EB11C1F5F17308D
:101A500091F78EE0E80EF11CCF5FC63019F0570108
:101A600010E0E9CFDF5F84E5C80ED11CD43001F768
:101A7000DF91CF911F91FF90EF90DF90CF90BF90BB
:101A8000AF900895EF92FF920F931F93CF93DF9340
:101A9000EC018A017C01E60EF71ECE018796CE1579
:101AA000DF0539F4DF91CF911F910F91FF90EF90F7
:101AB0000895C03521E0D20740F40E94D124F801F6
:101AC00080830F5F1F4F2196E8CFF8011082F9CF76
:101AD000CF92DF92EF92FF920F931F93CF93DF93FA
:101AE0007C016A018C01060F171FEC01CE0187965D
:101AF000C017D10749F4DF91CF911F910F91FF904B
:101B0000EF90DF90CF900895C03521E0D20740F4E8
:101B1000FE01EE19FF09EC0DFD1D60810E94DF241E
:101B20002196E4CF462F843038F4763028F467309D
:101B300018F4672F0C94DC0C90E080E0089580E1AD
:101B4000089589E892E00895EF92FF920F931F9312
:101B5000CF93DF93EC018A017C01E60EF71ECE01E4
:101B600089589E4FCE15DF0539F4DF91CF911F9133
:101B70000F91FF90EF900895C93822E0D20740F40A
:101B80000E94D124F80180830F5F1F4F2196E7CF79
:101B9000F8011082F9CFCF92DF92EF92FF920F936C
:101BA0001F93CF93DF937C016A018C01060F171FEF
:101BB000EC01CE0189589E4FC017D10749F4DF913F
:101BC000CF911F910F91FF90EF90DF90CF900895EC
:101BD000C93822E0D20740F4FE01EE19FF09EC0DEE
:101BE000FD1D60810E94DF242196E3CFCF93DF9318
:101BF000C7E7D1E060E0CE010E94DF242196C11545
:101C000084E0D807B9F7DF91CF910895DF92EF9282
:101C1000FF920F931F93CF93DF9300D000D0CDB7E7
:101C2000DEB7F82E8FE08F1540F08FEF93E00E9423
:101C3000D12407E711E08823C1F00F900F900F9097
:101C40000F90DF91CF911F910F91FF90EF90DF9058
:101C50000895011584E0180781F3C8010E94D1247A
:101C6000811101C0FA940F5F1F4FF110F2CF19825A
:101C70001A821B821C82DD24D39478018FEFE81A2C
:101C8000F80AC8010E94D12489831A828823A9F204
:101C90009FEF980F933078F48A83D9820E5F1F4F9D
:101CA000C7010E94D1248B83882339F2CE0101968B
:101CB0000E94C504E2CF8701F9CF0F931F93CF9302
:101CC000DF93C42FD22FFC0182818823C9F0409377
:101CD000C2010E94CC1C9093C1018093C00180E29C
:101CE0008C0F883008F050C0C77081E001C0880FA9
:101CF000CA95EAF7DF91CF911F910F910C94F112E1
:101D00001091C201141335C08091C0019091C1019E
:101D10000E94E41C883C910560F5C0E2CD0F1D17C0
:101D2000B9F080E2810F883040F4177081E001C083
:101D3000880F1A95EAF70E94F812C83048F481E03B
:101D40009D2F977001C0880F9A95EAF70E94F112B3
:101D5000802F0E94E912C830B8F4D77081E001C02A
:101D6000880FDA95EAF7DF91CF911F910F910C94CC
:101D7000F81280E28C0F883038F4C77081E001C01F
:101D8000880FCA95EAF7EFCFDF91CF911F910F919E
:101D900008950F939C01CB01233F4CE5340759F183
:101DA000A8F4283DFCE53F0701F1293D4CE5340747
:101DB000D1F1273D3C4591F406E221EE41EE67ED7D
:101DC0007CE50E945D0E80E00F910895253FFCE5C3
:101DD0003F07E9F0B0F0263F3C45F9F0FC01828175
:101DE000882339F11092C201EFCF07E225EE45EECC
:101DF00068ED7CE5E6CF06E221EE40EE63EF7CE5A0
:101E0000E0CF07E225EE44EE64EF7CE5DACF06E2B0
:101E100021EE42EE65EF7CE5D4CF07E225EE46EEFB
:101E200066EF7CE5CECF08E221E045EE69ED7CE58A
:101E3000C8CF81E0C9CFCF93DF93EC01FB01828152
:101E4000882309F419C1C230FCE5DF07C0F1C631AF
:101E50009CE5D90730F09E012A5F3C4529303105C9
:101E600070F50E945E1B9093560280935502C0311C
:101E7000ECE5DE0709F4CFC008F05BC0C8308CE5A4
:101E8000D80709F4B6C088F5C430ECE5DE0709F4DC
:101E9000A8C0C0F4C2308CE5D80709F49CC080917A
:101EA00055028260C330DC4509F498C08091550228
:101EB000909156020E946C1B0E946B1580E0DF918E
:101EC000CF910895809155028061C630ECE5DE0720
:101ED00009F484C0809155028860C730DC4508F45D
:101EE0007DC080915502806279C0CC308CE5D807E6
:101EF00009F489C070F4809155028C60CA30ECE519
:101F0000DE0709F46BC008F478C0809155028E7F1B
:101F100065C0CE308CE5D80709F479C080915502B0
:101F20008B7FCF30DC4508F459C0809155028F7EFD
:101F300055C0CB3FECE5DE0709F457C030F5C3319F
:101F40008CE5D80709F46FC078F4C131ECE5DE0701
:101F500009F465C0C231DC4509F0A8CF0E946B15B9
:101F6000809155028F773AC0C5318CE5D80709F4C6
:101F700062C008F476C0809156028160CA3FDC4599
:101F800009F094CF8093560291CFCF3FFCE5DF0755
:101F900009F44DC088F4809156028D7FCD3F9CE5B9
:101FA000D90781F3809156028E7FCE3FDC4550F3F6
:101FB000809156028360E6CFC130FDE5DF0709F46A
:101FC00059C008F444C080E0C230DD4509F06ECF4E
:101FD0000E94F21B6BCF8091550281608093550265
:101FE00065CF809155028460F9CF8091560282605E
:101FF000C9CF809155028064F1CF0E946B1580910A
:1020000055028068EBCF809155028D7FE7CF80919C
:102010005502877FE3CF809155028F7DDFCF80917E
:1020200055028F7BDBCF80915502837FD7CF809184
:1020300056028C7FA7CF8091550282FB992790F999
:1020400021E0922790FB82F990FB83F9C7CF809122
:102050005602982F909591708E7F892B90FB81F975
:1020600091CF0E946B1590915502892F97FB87F9AC
:102070008058B4CF81E0ACCF81E021CFCF93DF9304
:10208000EB0186319C4511F50E94931A9A819923A0
:1020900099F08A7A91E009F490E09093C30181115C
:1020A00009C089E20E944D1A0E94D61A80E0DF9191
:1020B000CF91089585E3F6CF8091C301811104C0CB
:1020C00089E20E94541AF0CF85E3FBCF81E0EFCF85
:1020D0009093C9018093C8010895E091C801F091DF
:1020E000C901309721F00190F081E02D099480E042
:1020F0000895E091C801F091C901309721F0028064
:10210000F381E02D09940895E091C801F091C9018F
:10211000309739F022E0DC012C930480F581E02D2A
:10212000099408952091C6013091C70128173907F5
:1021300071F09093C7018093C601E091C801F091BE
:10214000C901309721F00680F781E02D09940895A8
:102150002091C4013091C5012817390771F090937F
:10216000C5018093C401E091C801F091C901309785
:1021700021F00084F185E02D099408950E94D81C77
:102180006093D9017093DA018093DB019093DC01B5
:102190006093D5017093D6018093D7019093D801B5
:1021A00008950E94D81C6093D9017093DA0180933E
:1021B000DB019093DC016093D1017093D201809395
:1021C000D3019093D401089585B7806885BF85B702
:1021D000806885BF0895089508950C94EB100895C4
:1021E0000C94EF100E94E41083E49BE10E943B1DDD
:1021F0000E94EC100C94ED1081E008950C94FC10FA
:10220000089508950E9400110C9401110E94C31CAE
:102210000E9413070E94C70B0E94810A0C94F010C1
:10222000AF92BF92CF92DF92EF92FF920F931F93E4
:10223000CF93DF93CDB7DEB72A970FB6F894DEBF02
:102240000FBECDBF0E94460781110E94BE108BECCD
:10225000A82E81E0B82E10E000E0C02E802F0E9452
:10226000ED06E82EF501F1905F01F81609F453C070
:102270008091490281FD0E94F3068F2D8E25D12C7D
:10228000FF24F394982F9F2109F440C00E94FE1070
:10229000882399F0DE82CF82EF2081E009F480E08C
:1022A00088870E94CC1C8160782F9A8789874E810D
:1022B0005F8168858A850E94B311F801E553FE4F5E
:1022C0008081F826F0820E94E90A81110E94D110D3
:1022D0000E9465090E946D109091CA01891791F1C1
:1022E0000E946D108093CA012A960FB6F894DEBF43
:1022F0000FBECDBFDF91CF911F910F91FF90EF9057
:10230000DF90CF90BF90AF900C94CF04D394FF0C8C
:10231000F7E0DF12B7CF0F5F1F4F0630110509F04E
:102320009CCF8FEF89838A831B820E94CC1C8160A3
:10233000782F9D838C8349815A816B818D810E9486
:10234000B311C1CF2A960FB6F894DEBF0FBECDBF32
:10235000DF91CF911F910F91FF90EF90DF90CF9081
:10236000BF90AF900895DF92EF92FF920F931F936B
:10237000CF93DF93CDB7DEB72B970FB6F894DEBFC0
:102380000FBECDBF7A878B87F42E052F162FE72E31
:10239000D82E61110E94B31A1E821D827E2DEC82FE
:1023A000DD824F2D502F612F8D2D9E812B960FB6E4
:1023B000F894DEBF0FBECDBFDF91CF911F910F917B
:1023C000FF90EF90DF900C94E117FC0180819181E8
:1023D0000C941F1ACF93C82F882309F48BC082381E
:1023E000C1F40E946D1081FD85C089E30E944D1AE1
:1023F0000E94D61A2FEF81EE94E021508040904049
:10240000E1F700C0000089E30E94541ACF910C94B8
:10241000D61A8338A1F40E946D1080FD6BC083E54D
:102420000E944D1A0E94D61A2FEF81EE94E021509F
:1024300080409040E1F700C0000083E5E5CF84389C
:10244000A1F40E946D1082FD55C087E40E944D1AD0
:102450000E94D61A2FEF81EE94E0215080409040E8
:10246000E1F700C0000087E4CFCF8CEF8C0F813AFA
:1024700090F46C2F80910801909109010E94091C31
:10248000882329F08C2F0E94541A0E94D61A8C2F70
:102490000E944D1ABBCF80E28C0F883048F4C77081
:1024A00081E001C0880FCA95EAF70E94961AAECF64
:1024B000EBE5EC0FE33040F4F0E0EB56FE4F8081AB
:1024C00090E0CF910C949210E8E5EC0FE73150F4D6
:1024D000F0E0EE0FFF1FE959FE4F80819181CF910F
:1024E0000C94A810C03F30F08C2F0E947708CF9139
:1024F0000C944A09CF910895882309F452C0823878
:1025000071F40E946D1081FF4CC089E30E944D1A46
:102510000E94D61A89E30E94541A0C94D61A833862
:1025200059F40E946D1080FF3CC083E50E944D1A53
:102530000E94D61A83E5EFCF843859F40E946D10BB
:1025400082FF2FC087E40E944D1A0E94D61A87E4AA
:10255000E2CF9CEF980F913AF0F290E2980F98300A
:1025600050F4877091E001C0990F8A95EAF7892F9E
:102570000E949C1AD2CF9BE5980F933020F490E0F4
:1025800080E00C94921098E5980F973120F490E039
:1025900080E00C94A810803F20F00E94D1080C9499
:1025A0004A0908951F93CF93DF93182FEB010E94E0
:1025B000EA11209731F4812FDF91CF911F910C9474
:1025C0007C128FE99FE00197F1F700C0000021978E
:1025D000F0CF70E060E0893311F460E570E00C94B6
:1025E000D212882321F00E94961A0C94D61A0895CC
:1025F000882321F00E949C1A0C94D61A0895BF9249
:10260000CF92DF92EF92FF920F931F93CF93DF93BE
:102610006C01D62FC72FFC011281058102950F7026
:102620000E946B1AE82E8823A1F0E12E112389F075
:102630008C2F807F803429F080E28D0FE12C883050
:1026400040F082E00E94271B0E946B1A91E0E82E66
:10265000E926BC2EB2949FE0B922FBE0FB1598F16D
:10266000EB2DF0E0E85DFA4D0C94B0240C2F0F70C8
:10267000C07F11F00295007F1123A9F0002359F0CB
:1026800080E28D0F883010F0D11109C0802F0E9498
:10269000961A0E94D61A8D2F0E94EA1114C0802F1C
:1026A0000E94A61AF6CF8D2F0E947C12002359F0AB
:1026B00080E28D0F883010F0D1112CC0802F0E9445
:1026C0009C1A0E94D61A2B2D2850330B243031052A
:1026D00020F40E946D100E94CF04EE2009F48EC1F8
:1026E0000E94671A80FD8AC1F60112820E94611A57
:1026F0000E94ED18C6010E941F150E94611ADF9109
:10270000CF911F910F91FF90EF90DF90CF90BF90EE
:102710000C940E19802F0E94AC1AD3CF2C2F2F703F
:10272000F22EC07FC03219F0F29480EFF822DD2340
:1027300069F0D13049F1112391F1002351F1F601F3
:10274000858180FFA8CF8F70858323C0112381F0FE
:10275000011106C00E94B91A8F290E94F112B3CF4D
:102760000130C1F70E94B91A8F290E94BF1AABCF5E
:10277000011106C00E94CC1A8F2D0E94F812A3CF1F
:10278000013009F4A0CFF6CF112329F0063008F06C
:102790009ACF8F2DE2CF053008F095CFEDCF0023F3
:1027A00059F3D93349F4FFEF27EE33E0F1502040DD
:1027B0003040E1F700C000008D2F0E947C1283CFD3
:1027C0008C2F86958695837069F0813009F07BCFD8
:1027D0008D2F9C2F9370111102C090E080E00E9419
:1027E000A81071CF8D2F9C2F9370111102C090E013
:1027F00080E00E94921067CF8D2F112329F00E9454
:1028000077080E944A095FCF0E94D108FACF8C2F27
:10281000837009F041C0111156CF4D2F4295469556
:102820004770440F440F0D2F0F7010E030E020E090
:10283000042E04C0000F111F221F331F0A94D2F769
:1028400060E070E0CB01D4FF0FC06FE070E080E08B
:1028500090E004C0660F771F881F991F4A95D2F732
:102860006095709580959095C695C695C370602BC0
:10287000712B822B932BC23049F058F4C13019F0E0
:102880000E949F1820CF0E948D181DCF0E94B11862
:102890001ACF0E948B1817CF8695112311F08C2F19
:1028A0008170882309F40FCF4D2F429546954770CC
:1028B000440F440F0D2F0F7010E030E020E0042E85
:1028C00004C0000F111F221F331F0A94D2F760E0CB
:1028D00070E0CB01D4FF0FC06FE070E080E090E0CB
:1028E00004C0660F771F881F991F4A95D2F760951D
:1028F000709580959095C695C695C370602B712B89
:10290000822B932BC23049F058F4C13019F00E9449
:102910006419D9CE0E945219D6CE0E947619D3CE10
:102920000E94C718D0CECF70112329F08C2F0E949F
:10293000ED188D2F12CF8D2F0E94F8128C2F0E9430
:102940000E19C1CED23F89F160F4D03FC9F0D13F1A
:1029500029F1112309F442C001119DCE8C2F8F71F2
:1029600021C0D33F39F1D43FA1F7112369F1CF71D1
:102970008C2F0E94ED1863E08C2F0E940C1BA3CEBD
:10298000112341F0053008F09ECE8C2F8F710E94EC
:10299000311999CE063008F096CEF7CF8C2F8F7173
:1029A000112369F20E94ED188ECE8C2F8F711123A6
:1029B000C9F3C5CF112329F08C2F8F710E94D8182D
:1029C00082CE0E94D3187FCE81E00E94271B023066
:1029D00008F479CE82E00E94271B75CE002359F0BF
:1029E000D93309F0E9CE8FEF97EEE3E081509040C4
:1029F000E040E1F7DFCE8C2F8F71A1CFDF91CF9137
:102A00001F910F91FF90EF90DF90CF90BF900895AE
:102A10000F931F93CF93DF93EC01688179818A81B3
:102A20000E94291A8C010E9488190E948A18B801F4
:102A3000CE01DF91CF911F910F910C94FF12CF9394
:102A4000DF93EC018B819C81892B29F0888199810E
:102A500089238F3F59F4DF91CF910895CE010E94D1
:102A60000815CE01DF91CF910C941803CE010E947E
:102A70009F038111F3CF0E946B1A882361F38A812F
:102A8000882349F382E0DF91CF910C94271B8823A0
:102A900021F00E94A61A0C94D61A0895882321F0DA
:102AA0000E94AC1A0C94D61A089590E080E00E941F
:102AB000921090E080E00E94A8100E94B31A0E9439
:102AC000B61A0E94D61A0E94710A0C944A090E94F2
:102AD0005B1A0C9455150E94A31A0C946715E92FE4
:102AE000E295EF70E250EE3070F4F0E0EC5CFA4DFD
:102AF0000C94B024803F19F020F4883E20F481E04B
:102B00000895843FE1F380E00895883EC0F3813F5B
:102B1000D1F7F5CF93FB882780F908950E941F1AFB
:102B20000C946F15CF93DF9300D000D00F92CDB7E8
:102B3000DEB70F900F900F900F900F90DF91CF9115
:102B40000895CF93DF9300D000D000D0CDB7DEB78B
:102B500026960FB6F894DEBF0FBECDBFDF91CF91A2
:102B600008951F93CF93DF93C091DE0116E080910B
:102B7000DF018C1304C0DF91CF911F910895D0E045
:102B80001C9FF0011D9FF00D1124E052FE4F40816B
:102B9000518162817381848195810E94A115219662
:102BA000C770E5CF4091100250911102609112025E
:102BB0007091130280911402909115020C94A1154A
:102BC0001F93CF93DF9380911502807FA9F48091AA
:102BD0001202882389F08091DE01C091DF016091AB
:102BE000100270911102A0911302B0911402D62F1D
:102BF000D72316E0C81304C0DF91CF911F91089529
:102C000090E0109711F0DF3F19F401968770F2CF32
:102C1000189F9001199F300D1124F901E052FE4FC9
:102C200041814713F2CF40814613EFCF42814111DA
:102C3000ECCF438154814A1B5B0B483C510528F77C
:102C4000809115028F70806180931502F901EB511C
:102C5000FE4F80818F708061808380E192E00E94CE
:102C60001F15DF91CF911F910C94B115AF92BF92B8
:102C7000CF92DF92EF92FF920F931F93CF93DF9348
:102C8000CDB7DEB761970FB6F894DEBF0FBECDBFEC
:102C90008C0185E0F801DE011D9601900D928A9568
:102CA000E1F7F80140815181E28080E1C82E82E0A5
:102CB000D82E60911302709114026115710509F408
:102CC00061C19091100220911102892F82238F3FC0
:102CD00009F458C1A380B480F0901202F501E61BFC
:102CE000F70BFF2009F4FCC080911502382F307FCC
:102CF000E83CF10508F0B2C0311179C0FE2C251373
:102D000023C0941321C0E1101FC08F708061809395
:102D100015020E94D215C6010E941F15809115024E
:102D2000F80185838F2D61960FB6F894DEBF0FBE34
:102D3000CDBFDF91CF911F910F91FF90EF90DF906A
:102D4000CF90BF90AF900895AB2829F0842F8523B2
:102D50008F3F09F033C180E0F82FF170DF2E80FF44
:102D60003CC08091DE012091DF0136E0821315C066
:102D70004D875E878D859E850E941F1A292F22957B
:102D80002F702230F0F0243018F59F70F1F0F80128
:102D90009581907FD1F4D12C1EC090E0389FF00136
:102DA000399FF00D1124E052FE4F6181651306C07A
:102DB0006081641303C062816E110FC00196877039
:102DC000D5CF9F7011F0882331F3805E883018F3DF
:102DD000C8010E941F15FD2CA5CFEE2009F4A2CF3B
:102DE00080911502816080931502F12C9BCF2513F1
:102DF00006C0941304C0F801EE2009F48DC04D877D
:102E00005E878D859E850E948E15882319F1EE20A0
:102E100009F180911502803270F0209110023091FA
:102E2000110238872F831986BB86AA868C87CE012C
:102E300007960E941F1586E0F801A0E1B2E001901C
:102E40000D928A95E1F70E94E0150E94D215FF24A9
:102E5000F39468CFC8010E941F15F9CF311113C038
:102E60007A2DB98AA88A6E2D89890E94921580E1EF
:102E700092E00E941F1586E0F60111928A95E9F70B
:102E80000E94D215B2CF25130FC094130DC0E110CC
:102E90000BC0F8018583C8010E941F1586E0F6016A
:102EA00011928A95E9F73ECF4D875E878D859E8585
:102EB0000E948E15882371F2EE2061F28091150236
:102EC000803208F4B8CF20911002309111023A8379
:102ED00029831B82BD82AC828E83CE010196A9CF4D
:102EE000E83CF10508F041C0FE2CEE2009F4B2CF19
:102EF00025132AC0941328C08091150280FD1BC0A1
:102F0000982F907FC1F0F8018583903F31F0982F82
:102F1000907F905F8F70892B8583C8010E941F1559
:102F200086E0F801A0E1B2E001900D928A95E1F708
:102F30000E94D215F7CE86E0F801A0E1B2E0019040
:102F40000D928A95E1F7EECE4D875E878D859E8541
:102F50000E948E1581116FCF809115028160809340
:102F60001502C8010E941F15DDCE7A2DB98AA88AE4
:102F70006E2D89890E94921586E0F60111928A953C
:102F8000E9F7D6CFEE2009F465CF4D875E878D85B2
:102F90009E850E948E15F82E882309F45BCF86E06B
:102FA000F801A0E1B2E001900D928A95E1F780E18D
:102FB00092E00E94E5110E94E015BACF81E08E25D3
:102FC000CBCE1F93CF93DF93CDB7DEB72C970FB641
:102FD000F894DEBF0FBECDBF4F83588769877A87CD
:102FE0008B879C87CE0107960E943616882369F04E
:102FF0008A859B85892B39F04F815885842F8523BD
:103000008F3F09F071C016E05FC086E0FE01379681
:10301000DE01119601900D928A95E1F78A859B85D4
:10302000892B89F38F81988589238F3F61F32091C4
:10303000DF0130E0C9010196877099274091DE01D8
:103040004817190671F40E946B151092DF01109257
:10305000DE0186E0E0E1F2E0DF011D928A95E9F70A
:10306000D2CF96E0929FD001939FB00D1124A05231
:10307000BE4FFE01319601900D929A95E1F7809333
:10308000DF010E94B115BFCF819FC0011124805282
:103090009E4F0E9436168823E9F0E091DE011E9FC4
:1030A000F0011124E052FE4F408151816281738111
:1030B000848195810E94A1158091DE0190E00196A6
:1030C000877099278093DE018091DE019091DF0166
:1030D0008913DACF2C960FB6F894DEBF0FBECDBFA2
:1030E000DF91CF911F91089569857A858B859C85A5
:1030F0000E94A11588CF08950C947B180E947C181B
:10310000609338027093390280933A0290933B02A5
:103110000C94551508950C947E180F931F930091ED
:1031200038021091390220913A0230913B02602B13
:10313000712B822B932B1F910F910C947E180F9360
:103140001F93009138021091390220913A02309178
:103150003B0260237123822393231F910F910C94D0
:103160007E180F931F93009138021091390220911D
:103170003A0230913B0260277127822793271F91E3
:103180000F910C947E180C947B180C94C3180E9419
:10319000C518609334027093350280933602909381
:1031A00037020C94551560E070E0CB010C94C71801
:1031B0000F931F9341E050E060E070E08A019B01B3
:1031C00004C0000F111F221F331F8A95D2F7C901B7
:1031D000B8011F910F910C94C7180F931F9341E0F2
:1031E00050E060E070E004C0440F551F661F771F79
:1031F0008A95D2F78091340290913502A0913602DF
:10320000B09137028A019B01082B192B2A2B3B2BEB
:10321000C901B8011F910F910C94C7180F931F9308
:1032200041E050E060E070E004C0440F551F661FAD
:10323000771F8A95D2F7CB01BA016095709580957A
:103240009095009134021091350220913602309110
:10325000370260237123822393231F910F910C94D3
:10326000C7180F931F9341E050E060E070E004C086
:10327000440F551F661F771F8A95D2F7809134023D
:1032800090913502A0913602B09137028A019B01DC
:10329000082719272A273B27C901B8011F910F9139
:1032A0000C94C7180F931F930091340210913502AC
:1032B0002091360230913702602B712B822B932B99
:1032C0001F910F910C94C7180F931F930091340214
:1032D000109135022091360230913702602371231C
:1032E000822393231F910F910C94C7180F931F9360
:1032F000009134021091350220913602309137024C
:1033000060277127822793271F910F910C94C7186C
:10331000089527E0929F800D1124982F977041E027
:1033200001C0440F9A95EAF786958695869595E0B3
:10333000899FF0011124EA5EFD4F90E080E070E08B
:103340005191DF0111979B01082E02C036952795F8
:103350000A94E2F7217021952527242325272C9311
:1033600001968530910561F7089527E0929F800DC1
:103370001124982F977086958695869525E0829FD3
:10338000F0011124EA5EFD4F50E040E080E0219121
:1033900030E0092E02C0369527950A94E2F7217095
:1033A0003327042E01C0220F0A94EAF7822B4F5FC5
:1033B0005F4F4530510559F70895BF92CF92DF9284
:1033C000EF92FF920F931F93CF93DF938C01C090E6
:1033D0003402D0903502E0903602F09037028091AE
:1033E000380290913902A0913A02B0913B02C82A6A
:1033F000D92AEA2AFB2ACFE1D0E0BC2ED701C601A8
:103400000C2E04C0B695A795979587950A94D2F788
:1034100080FD0EC0219788F7B12C8B2DDF91CF91C5
:103420001F910F91FF90EF90DF90CF90BF90089584
:10343000B8018C2F0E94D704019761F3EECFCF9390
:10344000DF93EC010E94DD19BE01DF91CF910C9456
:10345000D7041F93CF93DF93EB019091DD01992364
:1034600031F0CB01DF91CF911F910C941F1A88236B
:1034700079F0CB010E94DD19182F682FCE010E9430
:103480008919BE01812FDF91CF911F910C94D70430
:10349000CB010E94B519182FF4CF682F8091080135
:1034A000909109010C943F1C682F80910801909124
:1034B00009010C94411C80910801909109010C9420
:1034C000431C80913C028595859585950895809152
:1034D0003C028770089590913C02977081E009F456
:1034E00080E008959091560292FB222720F9281738
:1034F00051F080FB92F99093560280915502909181
:1035000056020C946C1B08958091560282FB88270A
:1035100080F991E089270C94721A81E00C94721A58
:1035200080E00C94721A80914802089590914802AC
:10353000892B8093480208958095909148029823A2
:10354000909348020895109248020895909147027E
:10355000892B809347020895809590914702982384
:1035600090934702089510924702089510924602E0
:10357000089580913D02089508950C94BC1A90918D
:10358000560292FD08C090913D02981721F0809359
:103590003D020C94BD1A089580913D02882329F0C4
:1035A00010923D0280E00C94BD1A0895E09108014C
:1035B000F0910901809148028083E0910801F09127
:1035C0000901808190914702892B8083E091080155
:1035D000F0910901808190914602892B808390911E
:1035E0003D02992381F0E0910801F0910901808169
:1035F000892B808380910801909109010E94F71B1B
:1036000081110E94CC1A80910801909109010C94BB
:10361000791008950C94091B9091560292FD10C0E8
:1036200098E0899F90011124622B60933C020E94D4
:10363000ED1880913C028595859585950C940A1B23
:103640000C94ED1810923C0280E00C940A1B9091AF
:103650003C028095892380933C02282F277039F4FF
:10366000282F082E000C330B9217130621F490918B
:10367000560292FF07C08595859585950E940E1983
:103680000C94221B089580E008956FEF7FEF90E087
:1036900080E00C94FD2490E080E00E94D92421E099
:1036A0008A3E9E4F09F020E0822F089582E090E04C
:1036B0000C94D12483E090E00C94D124CF9384E047
:1036C00090E00E94D124C82F82E290E00E94D12491
:1036D000982F8C2FCF910895CF93C92F682F84E016
:1036E00090E00E94DF246C2F82E290E0CF910C9456
:1036F000DF24AB01BC018FE090E00C94F124AB011E
:10370000BC0183E190E00C94F12460E070E0CB0117
:103710000C947F1B60E070E0CB010E94791B0C943D
:10372000851B6AEE7EEF90E080E00E94FD2460E061
:1037300082E090E00E94DF2460E083E090E00E945D
:10374000DF24109238021092390210923A0210923D
:103750003B0260E084E090E00E94DF2460E082E2CF
:1037600090E00E94DF2460E085E090E00E94DF248A
:1037700060E086E090E00E94DF246FEF87E090E059
:103780000E94DF2440E050E0BA0188E090E00E940F
:10379000F12460E08DE090E00E94DF2440E050E002
:1037A000BA0188E190E00E94F12460E087E190E0B6
:1037B0000E94DF2440E050E0BA018CE190E00E94DA
:1037C000F12470E060E080E290E00E94FD2440E09F
:1037D00050E0BA0188E190E00E94F1240C948A1B29
:1037E0000C94911B682F8EE090E00C94DF249C01D8
:1037F0002E5F3F4FAC01485F5F4F80E024173507D5
:1038000009F40895F90191919F019923B9F38F5F0C
:10381000F5CF662349F0FC013296089621912617D0
:1038200029F0E817F907D1F780E0089581E00895BD
:103830009C01FC0132969FEF80E04191461751F0C8
:103840009F3F19F4411101C0982F8F5F8630A9F76F
:103850009F3F09F40895290F311D97FD3A95F9010D
:1038600062830895FC01329608962191261303C0C5
:10387000DF0111971C92E817F907B9F708950C9426
:10388000181C0C94321C029626E0FC0111922A9519
:10389000E9F70895089508950C944B1C80916B02EC
:1038A000843049F10E944C1C80E00E94CF041092A9
:1038B0004A0288E190E020E40FB6F894A89580933E
:1038C00060000FBE2093600083B7817F846083BF58
:1038D00083B7816083BF7894889583B78E7F83BFD9
:1038E0000FB6F894A895809160008861809360007D
:1038F000109260000FBE08950895CF930E944A1C55
:103900000E9446070E947C1CC0E08C2F0E94ED069E
:10391000811105C0CF5FC630C1F7CF91089581E016
:10392000FCCF08950C94911C0E946B150E946D10A1
:103930000E94CF040C94921C1F921FB61F92112458
:103940008F939F93AF93BF9380914A02811113C0CD
:103950008091630290916402A0916502B091660229
:103960004196A11DB11D8093630290936402A093C0
:103970006502B0936602BF91AF919F918F911F90A6
:103980001FBE1F90189582E084BD93E095BD9AEF0D
:1039900097BD80936E0008952FB7F89480916302CD
:1039A00090916402A0916502B09166022FBF0895C4
:1039B0002FB7F89460916302709164028091650260
:1039C000909166022FBF08959C014FB7F8948091A3
:1039D000630290916402A0916502B09166024FBFAC
:1039E000821B930B089578941F921FB61F92112487
:1039F0008F939F93AF93BF938091630290916402E2
:103A0000A0916502B09166020196A11DB11D80933F
:103A1000630290936402A0936502B0936602BF9123
:103A2000AF919F918F911F901FBE1F90189581E0BD
:103A30008093E00080E28093D8001092C9008FE16B
:103A40009EE40197F1F700C0000087E090EBDC01F5
:103A50008093740290937502A0937602B0937702DC
:103A600088E19CE00FB6F894A895809360000FBEA3
:103A700090936000FFCF9093A9018093A8010895CF
:103A8000809153020895CF93DF9300D00F92CDB76A
:103A9000DEB790916B02943011F589837B836A8342
:103AA0009093E9008FEF9091E800815095FD06C05A
:103AB00095ED9A95F1F700008111F5CF8091E8001E
:103AC00085FF0DC050E040E063E070E0CE0101965C
:103AD0000E94BC1F8091E8008E778093E8000F90D1
:103AE0000F900F90DF91CF910895BC0184E00C946A
:103AF000431DBC0183E00C94431D9C0184E0809332
:103B0000E9009FEF8091E800915085FD06C085EDAA
:103B10008A95F1F700009111F5CF8091E80085FFBB
:103B20000CC050E040E066E070E0C9010E94BC1F9C
:103B30008091E8008E778093E8000895CF93DF931B
:103B4000EC0181E08093E9008FEF9091E8008150D3
:103B500095FD06C095ED9A95F1F700008111F5CF1E
:103B60008091E80085FF14C050E040E068E070E01C
:103B7000CE010E94BC1F8091E8008E778093E80000
:103B800088E0FE01ABE4B2E001900D928A95E1F786
:103B9000DF91CF910895CF93FC01603221F58091A0
:103BA0006B02843001F5C091E900CF702091EC00E8
:103BB000922F917020FD90E8C92B82E08093E9005C
:103BC0008091E80080FF0CC050E040E060E270E0CF
:103BD000CF010E94BC1F8091E8008E778093E8009F
:103BE000CF70C093E900CF91089580916A0281114E
:103BF00009C00E949B210E94F8218091E20084600C
:103C00008093E200089510926A020895089508953D
:103C1000089542E061EC81E00E94172142E261ECEC
:103C200084E00E94172142E261EC82E00E941721A9
:103C300042E260EC83E00C94172180916D028330A6
:103C400009F461C030F48130D1F1823009F49DC0B3
:103C500008958A3009F489C08B3009F46FC0893027
:103C600009F050C080916C02813209F04BC0809104
:103C7000700290917102009719F0029709F042C00A
:103C80008091E800877F8093E8008091E80082FFC0
:103C900035C09091F3008091F200029729F4809151
:103CA000F1008B7F813021F48091F10080935302E9
:103CB0008091E8008B778093E8000C944B218091F1
:103CC0006C02813AF9F48091E800877F8093E800E4
:103CD0008091700290917102892B61F468E08BE40D
:103CE00092E070E00E945A208091E8008B778093E8
:103CF000E800089560E090E080E0F3CF80916B02EF
:103D00008111C3CF089580916C02813AD9F78091D7
:103D1000700290917102892BA9F78091E800877F4A
:103D20008093E8008091E80080FFFCCF809114012F
:103D30008093F1008091E8008E77BDCF80916C0276
:103D4000813201F78091700290917102892BD1F636
:103D50008091E800877F8093E8000E944B2180914A
:103D60006E02809314010C946B1580916C02813269
:103D700049F68091E800877F8093E8000E944B21FC
:103D800080916F0280935402089580916C02813A71
:103D900009F0B8CF8091E800877F8093E800809198
:103DA000E80080FFFCCF80915402C2CFCDB7DEB7D0
:103DB000A0970FB6F894DEBF0FBECDBF84B7877F44
:103DC00084BF0FB6F894A8958091600088618093B5
:103DD0006000109260000FBE80E890E00FB6F8948B
:103DE00080936100909361000FBE0E94F2100E94C8
:103DF0009B210E94F8218091E20084608093E20080
:103E000078940E9481240E9406118AE091E00E9429
:103E1000681013E080916B028530B9F00E94101198
:103E200080916B028430C1F00E940211F3CF0E9496
:103E30004E1C80916902882341F00E947D1C8823DA
:103E400021F00E94A61F0E946B1580916B028530A5
:103E500071F30E94941CE2CF1093E9008091E80076
:103E600082FFE2CF8091E80090E085FF09C050E03A
:103E700040E060E270E0CE0101960E940B2091E0EC
:103E80008091E8008B778093E800992369F260E2E3
:103E9000CE0101960E94160CC7CF0C944F1F292FFC
:103EA00033272330310521F168F42130310509F43D
:103EB00043C02230310509F444C090E080E030E096
:103EC00020E026C02132310551F122323105A9F717
:103ED0006330710590F7FB01EE0FFF1FE556FE4FB3
:103EE0002081318168567E4FFB01808190E010C0B7
:103EF00099278130910581F0009729F00297E9F622
:103F0000ECEAF2E002C0E6ECF2E0849190E09F017E
:103F1000FA01318320830895EAEBF2E0F6CF6330B3
:103F2000710558F6660F771FFB01EF55FE4F208194
:103F3000318189E090E0ECCF82E190E025E233E04E
:103F4000E7CF8BE590E02AEC32E0E2CF80E189BD5B
:103F500082E189BD09B400FEFDCF8091D8008F7D3C
:103F60008093D8008091E00082608093E00080918F
:103F7000E00081FDFCCF0895AF92BF92CF92DF9217
:103F8000FF920F931F93CF93DF936C01EB018A0194
:103F90000E946A21F82E811123C00115110539F004
:103FA000F80180819181C81BD90BC80ED91EB12C94
:103FB000A12C2097A9F08091E80085FD22C0809176
:103FC000E8008E778093E80001151105A1F0F80153
:103FD00080819181A80EB91EB182A08285E0F82E61
:103FE0008F2DDF91CF911F910F91FF90DF90CF9098
:103FF000BF90AF9008950E946A218823D1F2F82ED5
:10400000EFCFF60181916F018093F1002197FFEFCF
:10401000AF1ABF0ACECFAF92BF92CF92DF92FF927C
:104020000F931F93CF93DF936C01EB018A010E94E2
:104030006A21F82E811123C00115110539F0F8010C
:1040400080819181C81BD90BC80ED91EB12CA12C1F
:104050002097A9F08091E80085FD22C08091E800BA
:104060008B778093E80001151105A1F0F80180819C
:104070009181A80EB91EB182A08285E0F82E8F2D05
:10408000DF91CF911F910F91FF90DF90CF90BF9064
:10409000AF9008950E946A218823D1F2F82EEFCFC5
:1040A0008091F100F60181936F012197FFEFAF1A24
:1040B000BF0ACECFFC0180917202909173028617E5
:1040C0009707A0F06115710529F49091E8009E779B
:1040D0009093E80090E06115710551F4911108C0CA
:1040E0008091E80082FF34C080E00895BC01F2CFE7
:1040F00080916B028823C1F18530C1F18091E80085
:1041000083FD30C08091E80082FDEACF8091E80015
:1041100080FFE1CF8091F3002091F200382F6115EC
:10412000710519F02830310558F091E0283031053B
:1041300009F090E02091E8002E772093E800CBCFA3
:1041400081918093F100615071092F5F3F4FE7CF5C
:1041500080916B02882341F0853041F08091E80026
:1041600083FFBECF81E0089582E0089583E0089543
:10417000FC01809172029091730286179707A0F05C
:104180006115710529F48091E8008E778093E8002D
:1041900090E06115710551F4911108C08091E8001B
:1041A00082FF35C080E00895BC01F2CF80916B02A0
:1041B0008823C9F18530C9F18091E80083FD31C0C1
:1041C0008091E80082FDEACF8091E80080FFE1CF96
:1041D0008091F3002091F200382F6115710519F0DC
:1041E0002830310558F091E02830310509F090E091
:1041F0008091E8008E778093E800CBCF8491809304
:10420000F1003196615071092F5F3F4FE6CF8091E9
:104210006B02882341F0853041F08091E80083FFF4
:10422000BDCF81E0089582E0089583E00895982F3E
:10423000973028F08F708093E90081E00895909383
:10424000E900242F762F50E0981731F07091EC00A0
:104250002091ED005091F00021FD02C09F5FE8CF5A
:104260003091EB003E7F3093EB003091ED003D7FCD
:104270003093ED003091EB0031603093EB007093A0
:10428000EC002093ED005093F0002091EE0027FD0C
:10429000E5CF80E0089580916C0287FF13C0809184
:1042A000E80082FF06C08091E8008B778093E800E9
:1042B00004C080916B028111F2CF089580916B024E
:1042C0008823D9F38091E80080FFF8CF8091E8003F
:1042D0008E77ECCF2091E4003091E50095E6A901BE
:1042E0002091EC00822F817020FF06C08091E800B1
:1042F00080FF06C080E008952091E80022FD1AC0EA
:1043000080916B02882389F0853089F08091EB00E1
:1043100085FD0FC02091E4003091E500421753075E
:10432000F9F29150E1F684E0089582E0089583E087
:10433000089581E008950E9409220E941122E0EE72
:10434000F0E0808181608083E8EDF0E080818F770C
:10435000808319BCA7EDB0E08C918E7F8C93808117
:104360008F7E808310926A0208950F931F93CF93DC
:10437000DF930E9409220E941122C8EDD0E08881BB
:104380008F77888388818068888388818F7D888300
:1043900019BC10926B02109267021092690210927F
:1043A000680200EE10E0F80180818B7F80838881B5
:1043B0008160888342E060E080E00E941721E1EEA6
:1043C000F0E080818E7F8083E2EEF0E0808181608A
:1043D0008083808188608083F80180818E7F8083E4
:1043E000888180618883DF91CF911F910F9108951B
:1043F000E8EDF0E080818F7E8083E7EDF0E0808162
:104400008160808384E082BF81E080936A020C94A3
:10441000B521E8EDF0E080818E7F80831092E2008C
:1044200008951092DA001092E10008951F920F9201
:104430000FB60F9211242F933F934F935F936F9377
:104440007F938F939F93AF93BF93EF93FF9380914D
:10445000E10082FF0BC08091E20082FF07C08091E3
:10446000E1008B7F8093E1000E9480248091DA003C
:1044700080FF19C08091D80080FF15C08091DA00BC
:104480008E7F8093DA008091D90080FF96C080E112
:1044900089BD82E189BD09B400FEFDCF81E0809332
:1044A0006B020E94F51D8091E10080FF19C0809190
:1044B000E20080FF15C08091E2008E7F8093E200D1
:1044C0008091E20080618093E2008091D800806258
:1044D0008093D80019BC85E080936B020E94071E70
:1044E0008091E10084FF2BC08091E20084FF27C00F
:1044F00080E189BD82E189BD89B5982F917080FFE7
:10450000FBCF8091D8008F7D8093D8008091E1000F
:104510008F7E8093E1008091E2008F7E8093E200A5
:104520008091E20081608093E2008091670288239D
:1045300009F449C084E080936B020E94081E8091B8
:10454000E10083FF29C08091E20083FF25C08091B4
:10455000E100877F8093E10082E080936B021092FC
:1045600067028091E1008E7F8093E1008091E200FC
:104570008E7F8093E2008091E20080618093E20070
:1045800042E060E080E00E9417218091F0008860A6
:104590008093F0000E94061EFF91EF91BF91AF91B2
:1045A0009F918F917F916F915F914F913F912F914B
:1045B0000F900FBE0F901F90189519BC10926B02B0
:1045C0000E94031E70CF8091E30087FD93E09093DB
:1045D0006B02B3CF1F920F920FB60F9211242F933D
:1045E0003F934F935F936F937F938F939F93AF937B
:1045F000BF93CF93DF93EF93FF93D091E900DF70E8
:104600008091EC00C82FC17080FDC0E81092E900D5
:104610008091F000877F8093F00078940E942E2391
:104620001092E9008091F00088608093F000CD2B1B
:10463000CF70C093E900FF91EF91DF91CF91BF91CF
:10464000AF919F918F917F916F915F914F913F912A
:104650002F910F900FBE0F901F9018951F93CF931F
:10466000DF93CDB7DEB7AA970FB6F894DEBF0FBEC3
:10467000CDBF8CE692E02091F100FC012193CF01A7
:10468000F2E084379F07B9F70E941D1E8091E80071
:1046900083FF1EC180916C0290916D029A3008F0E8
:1046A00017C1E92FF0E0EE5BFA4D0C94B02480388E
:1046B00099F0823809F00CC1809170028F708730B8
:1046C00008F006C18093E9008091EB0085FB882704
:1046D00080F91092E90006C0809168029091690209
:1046E000911182609091E800977F9093E800809309
:1046F000F1001092F1008091E8008E77E5C08823E8
:1047000009F4D3C0823009F0E3C080916E028111B8
:10471000D6C0809170028F702FEF280F263008F0DE
:10472000D7C08093E9002091EB0020FFC8C09330F0
:1047300031F48091EB0080628093EB00C0C09091D7
:10474000EB0090619093EB0021E030E001C0220F7C
:104750008A95EAF72093EA001092EA008091EB0034
:104760008860EACF8111B4C010916E021F778091EA
:10477000E3008078812B8093E3008091E800877FBD
:104780008093E8000E944B218091E80080FFFCCFDD
:104790008091E30080688093E30082E0111183E060
:1047A00080936B0295C08058823008F091C0809150
:1047B0006E0290916F028C3D23E09207A1F583E099
:1047C0008A838AE289834FB7F894DE01139620E04A
:1047D0003EE051E2E32FF0E050935700E49120FFD8
:1047E00003C0E295EF703F5FEF708E2F90E0EA30EC
:1047F000C0F0C7968D939D932F5F243159F74FBF1B
:104800008091E800877F8093E8006AE270E0CE0143
:1048100001960E945A208091E8008B778093E800EF
:1048200057C0C096E7CF6091700270917102AE01DF
:104830004F5F5F4F0E944D1FBC01892B09F448C098
:104840009091E800977F9093E80089819A810E9477
:10485000B820E1CF8038E1F58091E800877F809330
:10486000E800809167028093F10045CF811130C04C
:1048700090916E02923060F58091E800877F80937E
:10488000E800909367020E944B2180916702882381
:1048900011F084E005C08091E30087FDFACF81E04C
:1048A00080936B020E94091E13C080916E028130BA
:1048B00079F481E0933009F080E0809369021092EE
:1048C000E9008091E800877F8093E8000E944B21F7
:1048D0008091E80083FF0AC08091E800877F809381
:1048E000E8008091EB0080628093EB00AA960FB6FF
:1048F000F894DEBF0FBECDBFDF91CF911F91089519
:104900000895CF9380916B028823A1F0C091E900B4
:10491000CF709091EC00892F817090FD80E8C82BBA
:104920001092E9008091E80083FD0E942E23CF7051
:10493000C093E900CF91089597FB072E16F40094D9
:1049400007D077FD09D00E94BD2407FC05D03EF4B6
:10495000909581959F4F0895709561957F4F08952B
:10496000EE0FFF1F0590F491E02D0994692796271B
:1049700069277827872778270895AA1BBB1B51E151
:1049800007C0AA1FBB1FA617B70710F0A61BB70BBF
:10499000881F991F5A95A9F780959095BC01CD0164
:1049A0000895F999FECF92BD81BDF89A992780B5F7
:1049B0000895A8E1B0E042E050E00C940525262FD0
:1049C000F999FECF92BD81BDF89A019700B4021605
:1049D00039F01FBA20BD0FB6F894FA9AF99A0FBEB3
:1049E00008950396272F0E94E0240E94DF24252F9C
:1049F0000E94E024242F0C94E0240196272F0E948B
:104A0000E0240C94DF24DC01CB01FC01F999FECFFA
:104A100006C0F2BDE1BDF89A319600B40D92415046
:104A20005040B8F70895F894FFCF280C350C5C0C73
:104A3000680C730C7E0C810C810C810C810C810C38
:104A4000840C880C900C9D0CAA0CAD0CB00CBD0C09
:104A5000361336138E138E13E013FC136313631394
:104A600007149314A214A2147A157A1583158315CA
:104A700085158315831583157A157A158A1583157F
:104A800083158A1557237F2368247F236824B22344
:084A9000D32368242A243624F4
:104A98002808641E140A321E3E02401D9E1D7D1DFC
:104AA800791D751D01E200E900EA00B500B600B7FE
:104AB80000CD008301CC008A0192019401210223D8
:104AC8000224022502260227022A02B300B4006F3C
:104AD800007000818283F4F5F6F7313332946697DB
:104AE800C6343500FF0100010000FFFF000001008F
:104AF80001FF0093919290E200E900EA00B500B648
:104B080000B700CD008301CC008A019201940121F5
:104B180002230224022502260227022A02B300B435
:104B2800006F00700081828340227BD403370359D1
:084B380003DC02F50215030085
:00000001FF
